{
  "contractName": "MemberContract",
  "abi": [
    {
      "constant": true,
      "inputs": [],
      "name": "getMember",
      "outputs": [
        {
          "name": "",
          "type": "string"
        },
        {
          "name": "",
          "type": "string"
        },
        {
          "name": "",
          "type": "string"
        },
        {
          "name": "",
          "type": "int256"
        }
      ],
      "payable": false,
      "stateMutability": "view",
      "type": "function"
    },
    {
      "constant": false,
      "inputs": [
        {
          "name": "firstname",
          "type": "string"
        },
        {
          "name": "lastname",
          "type": "string"
        },
        {
          "name": "email",
          "type": "string"
        },
        {
          "name": "age",
          "type": "int256"
        }
      ],
      "name": "update",
      "outputs": [
        {
          "components": [
            {
              "name": "firstname",
              "type": "string"
            },
            {
              "name": "lastname",
              "type": "string"
            },
            {
              "name": "email",
              "type": "string"
            },
            {
              "name": "age",
              "type": "int256"
            },
            {
              "name": "exists",
              "type": "bool"
            }
          ],
          "name": "",
          "type": "tuple"
        }
      ],
      "payable": false,
      "stateMutability": "nonpayable",
      "type": "function"
    },
    {
      "constant": true,
      "inputs": [],
      "name": "signIn",
      "outputs": [
        {
          "name": "",
          "type": "bool"
        }
      ],
      "payable": false,
      "stateMutability": "view",
      "type": "function"
    },
    {
      "constant": false,
      "inputs": [
        {
          "name": "firstname",
          "type": "string"
        },
        {
          "name": "lastname",
          "type": "string"
        },
        {
          "name": "email",
          "type": "string"
        },
        {
          "name": "age",
          "type": "int256"
        }
      ],
      "name": "signUp",
      "outputs": [
        {
          "name": "",
          "type": "string"
        },
        {
          "name": "",
          "type": "string"
        },
        {
          "name": "",
          "type": "string"
        },
        {
          "name": "",
          "type": "int256"
        }
      ],
      "payable": false,
      "stateMutability": "nonpayable",
      "type": "function"
    }
  ],
  "bytecode": "0x6060604052341561000f57600080fd5b6112d28061001e6000396000f300606060405260043610610062576000357c0100000000000000000000000000000000000000000000000000000000900463ffffffff1680630274c0941461006757806331252c95146101d45780639e4cda43146102d4578063d5fe0ec414610301575b600080fd5b341561007257600080fd5b61007a610545565b60405180806020018060200180602001858152602001848103845288818151815260200191508051906020019080838360005b838110156100c85780820151818401526020810190506100ad565b50505050905090810190601f1680156100f55780820380516001836020036101000a031916815260200191505b50848103835287818151815260200191508051906020019080838360005b8381101561012e578082015181840152602081019050610113565b50505050905090810190601f16801561015b5780820380516001836020036101000a031916815260200191505b50848103825286818151815260200191508051906020019080838360005b83811015610194578082015181840152602081019050610179565b50505050905090810190601f1680156101c15780820380516001836020036101000a031916815260200191505b5097505050505050505060405180910390f35b34156101df57600080fd5b6102be600480803590602001908201803590602001908080601f0160208091040260200160405190810160405280939291908181526020018383808284378201915050505050509190803590602001908201803590602001908080601f0160208091040260200160405190810160405280939291908181526020018383808284378201915050505050509190803590602001908201803590602001908080601f01602080910402602001604051908101604052809392919081815260200183838082843782019150505050505091908035906020019091905050610846565b6040518082815260200191505060405180910390f35b34156102df57600080fd5b6102e7610c56565b604051808215151515815260200191505060405180910390f35b341561030c57600080fd5b6103eb600480803590602001908201803590602001908080601f0160208091040260200160405190810160405280939291908181526020018383808284378201915050505050509190803590602001908201803590602001908080601f0160208091040260200160405190810160405280939291908181526020018383808284378201915050505050509190803590602001908201803590602001908080601f01602080910402602001604051908101604052809392919081815260200183838082843782019150505050505091908035906020019091905050610cc0565b60405180806020018060200180602001858152602001848103845288818151815260200191508051906020019080838360005b8381101561043957808201518184015260208101905061041e565b50505050905090810190601f1680156104665780820380516001836020036101000a031916815260200191505b50848103835287818151815260200191508051906020019080838360005b8381101561049f578082015181840152602081019050610484565b50505050905090810190601f1680156104cc5780820380516001836020036101000a031916815260200191505b50848103825286818151815260200191508051906020019080838360005b838110156105055780820151818401526020810190506104ea565b50505050905090810190601f1680156105325780820380516001836020036101000a031916815260200191505b5097505050505050505060405180910390f35b61054d611115565b610555611115565b61055d611115565b60008060003373ffffffffffffffffffffffffffffffffffffffff1673ffffffffffffffffffffffffffffffffffffffff1681526020019081526020016000206000016000803373ffffffffffffffffffffffffffffffffffffffff1673ffffffffffffffffffffffffffffffffffffffff1681526020019081526020016000206001016000803373ffffffffffffffffffffffffffffffffffffffff1673ffffffffffffffffffffffffffffffffffffffff1681526020019081526020016000206002016000803373ffffffffffffffffffffffffffffffffffffffff1673ffffffffffffffffffffffffffffffffffffffff16815260200190815260200160002060030154838054600181600116156101000203166002900480601f0160208091040260200160405190810160405280929190818152602001828054600181600116156101000203166002900480156106f95780601f106106ce576101008083540402835291602001916106f9565b820191906000526020600020905b8154815290600101906020018083116106dc57829003601f168201915b50505050509350828054600181600116156101000203166002900480601f0160208091040260200160405190810160405280929190818152602001828054600181600116156101000203166002900480156107955780601f1061076a57610100808354040283529160200191610795565b820191906000526020600020905b81548152906001019060200180831161077857829003601f168201915b50505050509250818054600181600116156101000203166002900480601f0160208091040260200160405190810160405280929190818152602001828054600181600116156101000203166002900480156108315780601f1061080657610100808354040283529160200191610831565b820191906000526020600020905b81548152906001019060200180831161081457829003601f168201915b50505050509150935093509350935090919293565b61084e611129565b600115156000803373ffffffffffffffffffffffffffffffffffffffff1673ffffffffffffffffffffffffffffffffffffffff16815260200190815260200160002060040160009054906101000a900460ff1615151415156108af57600080fd5b846000803373ffffffffffffffffffffffffffffffffffffffff1673ffffffffffffffffffffffffffffffffffffffff168152602001908152602001600020600001908051906020019061090492919061116d565b50836000803373ffffffffffffffffffffffffffffffffffffffff1673ffffffffffffffffffffffffffffffffffffffff168152602001908152602001600020600101908051906020019061095a92919061116d565b50826000803373ffffffffffffffffffffffffffffffffffffffff1673ffffffffffffffffffffffffffffffffffffffff16815260200190815260200160002060020190805190602001906109b092919061116d565b50816000803373ffffffffffffffffffffffffffffffffffffffff1673ffffffffffffffffffffffffffffffffffffffff168152602001908152602001600020600301819055506000803373ffffffffffffffffffffffffffffffffffffffff1673ffffffffffffffffffffffffffffffffffffffff16815260200190815260200160002060a06040519081016040529081600082018054600181600116156101000203166002900480601f016020809104026020016040519081016040528092919081815260200182805460018160011615610100020316600290048015610ada5780601f10610aaf57610100808354040283529160200191610ada565b820191906000526020600020905b815481529060010190602001808311610abd57829003601f168201915b50505050508152602001600182018054600181600116156101000203166002900480601f016020809104026020016040519081016040528092919081815260200182805460018160011615610100020316600290048015610b7c5780601f10610b5157610100808354040283529160200191610b7c565b820191906000526020600020905b815481529060010190602001808311610b5f57829003601f168201915b50505050508152602001600282018054600181600116156101000203166002900480601f016020809104026020016040519081016040528092919081815260200182805460018160011615610100020316600290048015610c1e5780601f10610bf357610100808354040283529160200191610c1e565b820191906000526020600020905b815481529060010190602001808311610c0157829003601f168201915b50505050508152602001600382015481526020016004820160009054906101000a900460ff1615151515815250509050949350505050565b6000600115156000803373ffffffffffffffffffffffffffffffffffffffff1673ffffffffffffffffffffffffffffffffffffffff16815260200190815260200160002060040160009054906101000a900460ff161515141515610cb957600080fd5b6001905090565b610cc8611115565b610cd0611115565b610cd8611115565b6000600115156000803373ffffffffffffffffffffffffffffffffffffffff1673ffffffffffffffffffffffffffffffffffffffff16815260200190815260200160002060040160009054906101000a900460ff16151514151515610d3c57600080fd5b60a060405190810160405280898152602001888152602001878152602001868152602001600115158152506000803373ffffffffffffffffffffffffffffffffffffffff1673ffffffffffffffffffffffffffffffffffffffff1681526020019081526020016000206000820151816000019080519060200190610dc19291906111ed565b506020820151816001019080519060200190610dde9291906111ed565b506040820151816002019080519060200190610dfb9291906111ed565b506060820151816003015560808201518160040160006101000a81548160ff0219169083151502179055509050506000803373ffffffffffffffffffffffffffffffffffffffff1673ffffffffffffffffffffffffffffffffffffffff1681526020019081526020016000206000016000803373ffffffffffffffffffffffffffffffffffffffff1673ffffffffffffffffffffffffffffffffffffffff1681526020019081526020016000206001016000803373ffffffffffffffffffffffffffffffffffffffff1673ffffffffffffffffffffffffffffffffffffffff1681526020019081526020016000206002016000803373ffffffffffffffffffffffffffffffffffffffff1673ffffffffffffffffffffffffffffffffffffffff16815260200190815260200160002060030154838054600181600116156101000203166002900480601f016020809104026020016040519081016040528092919081815260200182805460018160011615610100020316600290048015610fc35780601f10610f9857610100808354040283529160200191610fc3565b820191906000526020600020905b815481529060010190602001808311610fa657829003601f168201915b50505050509350828054600181600116156101000203166002900480601f01602080910402602001604051908101604052809291908181526020018280546001816001161561010002031660029004801561105f5780601f106110345761010080835404028352916020019161105f565b820191906000526020600020905b81548152906001019060200180831161104257829003601f168201915b50505050509250818054600181600116156101000203166002900480601f0160208091040260200160405190810160405280929190818152602001828054600181600116156101000203166002900480156110fb5780601f106110d0576101008083540402835291602001916110fb565b820191906000526020600020905b8154815290600101906020018083116110de57829003601f168201915b505050505091509350935093509350945094509450949050565b602060405190810160405280600081525090565b60a06040519081016040528061113d61126d565b815260200161114a61126d565b815260200161115761126d565b8152602001600081526020016000151581525090565b828054600181600116156101000203166002900490600052602060002090601f016020900481019282601f106111ae57805160ff19168380011785556111dc565b828001600101855582156111dc579182015b828111156111db5782518255916020019190600101906111c0565b5b5090506111e99190611281565b5090565b828054600181600116156101000203166002900490600052602060002090601f016020900481019282601f1061122e57805160ff191683800117855561125c565b8280016001018555821561125c579182015b8281111561125b578251825591602001919060010190611240565b5b5090506112699190611281565b5090565b602060405190810160405280600081525090565b6112a391905b8082111561129f576000816000905550600101611287565b5090565b905600a165627a7a723058200347d464ff518e4b15b7029bdc5048905474576460397d26a0c0fdfa8255db370029",
  "source": "pragma solidity ^0.4.17;\n\ncontract MemberContract {\n\n\tstruct Member {\n\t\tstring firstname;\n\t\tstring lastname;\n\t\tstring email;\n\t\tint age;\n\t\tbool exists;\n\t}\n\n    mapping(address => Member) members;\n\n\tfunction signUp(string firstname, string lastname, string email, int age) public memberNotExsist returns(string, string, string, int) {\n\t\tmembers[msg.sender] = Member({firstname: firstname, lastname: lastname, email: email, age: age, exists: true});\n\t\treturn (members[msg.sender].firstname, members[msg.sender].lastname, members[msg.sender].email, members[msg.sender].age);\n\t}\n\n\tfunction update(string firstname, string lastname, string email, int age) memberExsist public returns(Member) {\n\t\tmembers[msg.sender].firstname = firstname;\n\t\tmembers[msg.sender].lastname = lastname;\n\t\tmembers[msg.sender].email = email;\n\t\tmembers[msg.sender].age = age;\n\n\t\treturn members[msg.sender];\n\t}\n\t\n\tfunction getMember() public constant returns(string, string, string, int) {\n    \treturn (members[msg.sender].firstname, members[msg.sender].lastname, members[msg.sender].email, members[msg.sender].age);\n\t}\n\n\tfunction signIn() public constant memberExsist returns(bool) {\n\t\treturn true;\t\t\n\t}\n\t\n\tmodifier memberExsist() {\n\t\trequire(members[msg.sender].exists == true);\n\t\t_;\n\t}\n\n\tmodifier memberNotExsist() {\n\t\trequire(members[msg.sender].exists != true);\n\t\t_;\n\t}\n}\n",
  "sourcePath": "/Users/simenskoglund/github/blockchangers-task/contracts/MemberContract.sol",
  "compiler": {
    "name": "solc",
    "version": "0.4.18+commit.9cf6e910.Emscripten.clang"
  },
  "schemaVersion": "1.0.1",
  "updatedAt": "2018-02-07T23:50:05.740Z"
}